S01100004D43553120434152442E73726563C3
S11300000C942A000C9447000C9447000C9447006D
S11300100C9447000C9447000C9447000C94470040
S11300200C9447000C9447000C9447000C94470030
S11300300C9480030C9406040C94DA030C9447008B
S11300400C9447000C9447000C9447000C94470010
S11300500C94470011241FBECFE5D8E0DEBFCDBF0E
S113006012E0A0E6B0E0EAE6F8E002C005900D92E6
S1130070A239B107D9F723E0A2E9B2E001C01D9289
S1130080AD3BB207E1F70E94FA020C9433040C94DE
S11300900000EF92FF920F931F93CF9389E992E0B0
S11300A00E94C203809199028D3079F0C0E0CF5F45
S11300B0EC2EF12C870107561D4FC8010E94C20384
S11300C0F80180818D3099F703C0E12CF12CC0E058
S11300D0F701E756FD4F108281E08C0FCF911F91FD
S11300E00F91FF90EF900895CF93DF93EC018881F7
S11300F0882339F0219690E00E94BC0389918111F4
S1130100FACFDF91CF910895CF93DF931F92CDB7AC
S1130110DEB7BE016F5F7F4F80E090E00E94CF02A8
S113012081E09981973309F480E00F90DF91CF91BA
S1130130089581111CC0809199028823E1F18134D2
S113014029F081E00895381338C001C020E02F5F02
S1130150822F90E0FC01E756FD4F3081332379F183
S1130160FC01E557FD4F80818111EDCF0895813069
S113017009F580919902882321F1853549F081E0C0
S11301800895FC01EA57FD4F808138131CC001C05B
S113019020E02F5F822F90E0FC01E756FD4F308175
S11301A0332399F0FC01E557FD4F40814111E9CF1C
S11301B080E00895089580E0089581E0089580E046
S11301C0089580E0089581E0089580E00895CF9334
S11301D0DF9300D000D0CDB7DEB719821A821B821C
S11301E01C8289819A81AB81BC81843F9140A105A5
S11301F0B105A0F489819A81AB81BC810196A11DCE
S1130200B11D89839A83AB83BC8389819A81AB8135
S1130210BC81843F9140A105B10560F30F900F901C
S11302200F900F90DF91CF910895DF92EF92FF929C
S11302300F931F93CF93DF937C01D62E0E94E70088
S1130240DD2079F181E0D81679F1E2E0DE1699F14A
S113025080E036C0DAE003C005E110E0D5E0C0E09C
S1130260C8010E94AF02CF5F0F5F1F4F0E94E700DB
S1130270F701EC0FF11D6081662321F0CD13F0CF5F
S113028081E01EC0CD1749F0F1E0FD1540F060E0BB
S1130290C8010E94AF0281E013C081E011C081E077
S11302A00FC001E010E002C00BE010E0F701608134
S11302B06111D0CFECCFF70160816111CDCF81E026
S11302C0DF91CF911F910F91FF90EF90DF900895F0
S11302D0CF93DF930E94E70080E090E0EC01219649
S11302E0BE0168567C4F0E94CF020E94E700CE01F7
S11302F06A97A1F7DF91CF9108950F931F93CF933E
S1130300DF93C8E9D3E004EB13E089910E94720300
S1130310C017D107D1F7DF91CF911F910F910895A5
S11303200E94A4020E94AA030E946B030E948400FC
S1130330811123C00E94680186E391E00E94740049
S11303400E94490080E00E949900811107C082E068
S113035090E09093610080936000089581E00E9492
S11303609900811105C010926100109260000895F7
S113037089EC91E00E947400E3CF81E090E09093D7
S11303806100809360000895CF92DF92EF92FF9214
S11303900F931F93CF93DF9380916000909161003E
S11303A08130910549F082309105E9F0892B09F0FB
S11303B0C2C00E947D01BFC080E991E00E94740028
S11303C00E94490080E00E949900811107C082E0E8
S11303D090E09093610080936000ADC089EC91E05F
S11303E00E947400E9CFC9E9D2E083E191E00E9460
S11303F074000E9449008B3070F4682F70E06150E3
S11304007109161617060CF064C0888180538A306F
S113041070F040E011C08BED90E00E947400E5CFD5
S1130420F901E756FD4F908190539A3028F48AEDF4
S113043091E00E947400D9CF4F5F242F30E026173B
S1130440370774F346C082EB90E00E9474000E9468
S113045049008A3031F4F701808180538B3030F0C9
S11304600DC082E990E00E947400EDCFD02EC12E21
S1130470EAE9F2E0819180538B3028F082E092E047
S11304800E947400E0CFEC17FD07A1F732C08CE79F
S113049090E00E9474000E944900853031F4F80114
S11304A0808180538B3030F00BC082E690E00E9454
S11304B07400EDCFED2DFC2D819180538B3028F00D
S11304C08CE292E00E947400E2CFCE17DF07A1F71E
S11304D01AC060E089E992E00E9415010F2EF9E943
S11304E0EF2EF2E0FF2EF02D0AE912E0C2EAD2E08C
S11304F0AACF61E089E992E00E94150109E912E0BE
S1130500CDE9D2E0C4CF62E089E992E00E9415010E
S113051067E380E090E00E94AF020E9468011092BD
S113052061001092600086E592E00E94740082E708
S113053092E00E947400DF91CF911F910F91FF9080
S1130540EF90DF90CF900895E4EBF3E081E08283B5
S113055084E680831182CF010E94FF020895CF9325
S1130560DF9300D01F92CDB7DEB76B8399838A8364
S113057080E50E940A03CE0101960E944503CE0144
S113058002960E944503CE0103960E9445030E94F1
S113059065030F900F900F90DF91CF9108950F9303
S11305A01F93CF93DF9300D0CDB7DEB78B01998330
S11305B08A8380E50E940A03CE0101960E944503C6
S11305C0CE0102960E94450380E50E94270380E045
S11305D090E00196883823E19207D9F7C8010E9478
S11305E058030E9465030F900F90DF91CF911F91E4
S11305F00F9108950E9490010E94C401FDCFFC0157
S113060091B18181892B81B9808180B98281880FE0
S113061082B9089594EA96BF06B607FEFDCF91B15C
S1130620987F983071F4880F83B984E886BF06B642
S113063007FEFDCF81B1887F883129F0803229F00F
S1130640089580E0089588E1089580E2089594EA89
S113065096BF06B607FEFDCF91B1987F903179F42D
S1130660880F816083B984E886BF06B607FEFDCF94
S113067081B1887F803429F0883429F0089580E09E
S1130680089580E4089588E40895FC01808183B985
S113069084E886BF06B607FEFDCF81B1887F883225
S11306A019F0803319F0089588E2089580E30895DD
S11306B024E826BF06B607FEFDCF23B1FC01208344
S11306C081B1887F883501F0089584E986BF06B634
S11306D004FCFDCF08956E9A6C98BC98BD98BE9AA0
S11306E0BF980895CF93DF931F92CDB7DEB78FB92C
S11306F0779BFECF8FB189830F90DF91CF910895BF
S11307001F920F920FB60F9211242F933F934F9382
S11307105F936F937F938F939F93AF93BF93EF9365
S1130720FF93809196028FB9E091B803F091B903D9
S11307300995FF91EF91BF91AF919F918F917F9117
S11307406F915F914F913F912F910F900FBE0F903A
S11307501F90189559988CE089B910BC80B58668AB
S113076080BD80B5806880BD80B5806880BD80B55F
S1130770806880BD80E00895539A5D9BFECF8CB95C
S113078080E00895009779F0549AFC011182108258
S11307905F9BFECF5A9909C02CB130E0FC01318334
S11307A0208380E0089582E0089583E008955598B9
S11307B080E008951F920F920FB60F9211242F9389
S11307C03F934F935F936F937F938F939F93AF93D5
S11307D0BF93EF93FF938091BA038CB90E94D70320
S11307E0E0919402F09195020995FF91EF91BF91E8
S11307F0AF919F918F917F916F915F914F913F91B5
S11308002F910F900FBE0F901F9018951F920F926B
S11308100FB60F9211242F933F934F935F936F93CF
S11308207F938F939F93AF93BF93EF93FF93E09145
S1130830BB03F091BC038CB18083E0919202F091F0
S113084093020995FF91EF91BF91AF919F918F9181
S11308507F916F915F914F913F912F910F900FBEB8
S10D08600F901F901895F894FFCF35
S113086A010050494E206D75737420657175616C71
S113087A2034204E756D626572730D00506C65618B
S113088A736520456E746572207468652050494EFC
S113089A0D0050414E206D75737420626520657198
S11308AA75616C203920636861726163746572735F
S11308BA0D00506C6561736520456E746572207411
S11308CA6865205072696D617279204163636F753E
S11308DA6E74204E756D6265720D00486F6C6465A6
S11308EA72204E616D65206D7573742062652053A4
S11308FA6D616C6C6572207468616E206F7220651C
S113090A7175616C20392063686172616374657200
S113091A730D00506C6561736520456E74657220B1
S113092A746865204361726420486F6C6465722040
S113093A4E616D650D0054686520436172642069D7
S113094A7320696E697469616C697A656420626589
S113095A666F72650D20706C6561736520456E74EF
S113096A65722041444D494E20636F6D6D616E641A
S113097A20666F722065646974206F72205553452E
S113098A5220666F7220636F6E74696E75650D000E
S113099A205468652043617264206973206E6F7401
S11309AA2050726F6772616D6D656420706C656149
S11309BA736520456E746572207468652041646DA0
S11309CA696E204D6F64650D00496E76616C6964C9
S11309DA20436F6D6D616E640D00546865206E610D
S11309EA6D65206D757374206E6F7420636F6E74F9
S11309FA61696E7320616E79206E756D62657273BA
S1130A0A0D005468652050414E206D757374206E34
S1130A1A6F7420636F6E7461696E7320616E7920DE
S1130A2A636861726163746572730D00546865204A
S1130A3A50494E206D757374206E6F7420636F6E07
S1130A4A7461696E7320616E79206368617261638F
S1130A5A746572730D004461746120757064617405
S1130A6A6564207375636365737366756C6C79204A
S1130A7A0D0075736572206D6F64652073746172FD
S1130A8A746564200D00555345520041444D494E46
S1050A9A000056
S9030000FC
