S016000043617220436F6E74726F6C6C65722E73726563B4
S11300000C942A000C9447000C9447000C9447006D
S11300100C9447000C9447000C9447000C94470040
S11300200C9447000C9447000C9447000C94C905A9
S11300300C9447000C9447000C9447000C94470020
S11300400C9447000C9447000C9447000C94470010
S11300500C94470011241FBECFE5D8E0DEBFCDBF0E
S113006010E0A0E6B0E0E4EAFFE002C005900D92E3
S1130070A436B107D9F721E0A4E6B0E001C01D928F
S1130080A132B207E1F70E948C010C94D0070C94C2
S113009000000E9493010E94EE010895CF93DF9324
S11300A01F92CDB7DEB780E00E94D901BE016F5F19
S11300B07F4F80E00E94CB01898181112EC080E0B6
S11300C00E94D901BE016F5F7F4F80E00E94CB0187
S11300D089818823A1F380916400823099F028F407
S11300E0882341F0813051F018C0833079F0843096
S11300F089F013C081E0809364000FC082E0809394
S113010064000BC083E08093640007C084E08093A4
S1130110640003C081E0809364000F90DF91CF916D
S113012008956EE180E00E944F026EE181E00E943A
S11301304F020895823091F018F4813031F008951F
S11301408330A9F08430E1F008956EE180E00E94EC
S11301501F026EE181E00E941F02089562E380E0C5
S11301600E941F0262E381E00E941F0208956AE573
S113017080E00E941F026AE581E00E941F02089548
S11301800E9491000895823089F018F4813031F092
S11301900895833099F08430C9F0089580E00E9476
S11301A07F026EE181E00E941F02089580E00E94B8
S11301B07F026EE181E00E941F02089580E00E94A8
S11301C07F026EE181E00E941F02089580E00E9498
S11301D07F026EE181E00E941F020895823089F05F
S11301E018F4813031F00895833099F08430C9F0E7
S11301F0089581E00E947F026EE180E00E941F0268
S1130200089581E00E947F026EE180E00E941F0257
S1130210089581E00E947F026EE180E00E941F0247
S1130220089581E00E947F026EE180E00E941F0237
S1130230089581E00E947F0280E00E947F02089579
S1130240CF93DF931F92CDB7DEB781E00E94D9012F
S1130250BE016F5F7F4F81E00E94CB0189818111D4
S113026015C0809164000E949A00898181110CC09C
S113027081E00E94D901BE016F5F7F4F81E00E943F
S1130280CB0189818823A1F30E94190182E00E9495
S1130290D901BE016F5F7F4F82E00E94CB0189814B
S11302A0811115C0809164000E94C300898181116D
S11302B00CC082E00E94D901BE016F5F7F4F82E0D3
S11302C00E94CB0189818823A1F30E94190183E054
S11302D00E94D901BE016F5F7F4F83E00E94CB0172
S11302E08981811115C0809164000E94EE0089818A
S11302F081110CC083E00E94D901BE016F5F7F4F62
S113030083E00E94CB0189818823A1F30E94190113
S11303100F90DF91CF9108950E9449000E944E00F2
S11303200E942001FBCF1F93CF93DF93CBE6D0E055
S113033011E01D83188219831B8288E08A831C8341
S11303408CE690E00E949F021B871E831F83198600
S113035089E088871A8782E790E00E949F02198BC0
S113036082E08C871D871F868AE08E87188B88E73A
S113037090E00E949F021F8B83E08A8B1B8B1D8A57
S11303808BE08C8B1E8B8EE790E00E949F02DF91A6
S1130390CF911F91089590E0FC01EE0FFF1FE80F2D
S11303A0F91FEE0FFF1FE559FF4F8581FB01808385
S11303B0089590E0FC01EE0FFF1FBF01680F791F45
S11303C0660F771F60597F4FE80FF91FEE0FFF1F6D
S11303D0E559FF4F82810E94B30308951F93CF9381
S11303E0DF930E94EE04C3E0D1E01882198211E089
S11303F01A831B831C821D8282E08E831F831886CE
S113040084E091E00E949F0288E091E00E949F02B4
S113041019871A8684E08B871C871D861E8685E0D3
S11304208F87188B198A8DE091E00E949F0281E1E9
S113043091E00E949F02DF91CF911F9108951F9335
S1130440CF93DF93162F90E0EC01CC0FDD1FCC0F80
S1130450DD1FCC0FDD1F8C0F9D1FEC01CD5FDE4F28
S113046060E08A810E94180460E08E810E94180472
S113047061E08A810E94180460E08E810E94180461
S1130480212F45E050E060E070E0809160009091A1
S113049061000E940E05DF91CF911F9108951F9373
S11304A0CF93DF93162F90E0EC01CC0FDD1FCC0F20
S11304B0DD1FCC0FDD1F8C0F9D1FEC01CD5FDE4FC8
S11304C060E08A810E94180460E08E810E94180412
S11304D060E08A810E94180461E08E810E94180401
S11304E0212F45E050E060E070E080916000909141
S11304F061000E940E05DF91CF911F910895CF9363
S1130500DF9390E0EC01CC0FDD1FCC0FDD1FCC0F8F
S1130510DD1F8C0F9D1FEC01CD5FDE4F60E08A81F3
S11305200E94180460E08E810E941804809160008B
S1130530909161000E948005DF91CF910895FC01A4
S11305408081813009F446C038F0823009F480C0DB
S1130550833009F4BBC005C1828181110DC02AB367
S113056081E090E0018002C0880F991F0A94E2F7AD
S1130570809582238ABB0EC0813009F0E3C02AB380
S113058081E090E0018002C0880F991F0A94E2F78D
S1130590822B8ABB838181110DC02BB381E090E053
S11305A0018002C0880F991F0A94E2F78095822384
S11305B08BBBD7C08281813009F0D3C02BB381E0DB
S11305C090E0018002C0880F991F0A94E2F7822B01
S11305D08BBBC7C0828181110DC027B381E090E03D
S11305E0018002C0880F991F0A94E2F78095822344
S11305F087BB0EC0813009F0A9C027B381E090E029
S1130600018002C0880F991F0A94E2F7822B87BBEE
S1130610838181110DC028B381E090E0018002C084
S1130620880F991F0A94E2F78095822388BB99C0AA
S11306308281813009F095C028B381E090E0018087
S113064002C0880F991F0A94E2F7822B88BB89C0E5
S1130650828181110DC024B381E090E0018002C049
S1130660880F991F0A94E2F78095822384BB0EC0F9
S1130670813009F06FC024B381E090E0018002C0B2
S1130680880F991F0A94E2F7822B84BB838181111E
S11306900DC025B381E090E0018002C0880F991F4E
S11306A00A94E2F78095822385BB5BC08281813006
S11306B009F057C025B381E090E0018002C0880FA3
S11306C0991F0A94E2F7822B85BB4BC0828181116A
S11306D00DC021B381E090E0018002C0880F991F12
S11306E00A94E2F78095822381BB0DC08130B1F575
S11306F021B381E090E0018002C0880F991F0A9421
S1130700E2F7822B81BB838181110DC022B381E08A
S113071090E0018002C0880F991F0A94E2F7809547
S1130720822382BB1EC082818130D9F422B381E04E
S113073090E0018002C0880F991F0A94E2F7822B8F
S113074082BB0FC0838181110CC027CF83818111AB
S113075008C061CF8381811104C09BCF838188232A
S1130760A9F281E008958830B0F449B321E030E083
S1130770082E02C0220F331F0A94E2F750E024230C
S11307803523A90102C0559547958A95E2F7FB01E7
S1130790408381E0089548EF480F4830A8F426B319
S11307A081E090E0042E02C0880F991F0A94E2F7BA
S11307B030E08223932302C0959587954A95E2F70A
S11307C0FB01808381E0089540EF480F4830A8F48E
S11307D023B381E090E0042E02C0880F991F0A948D
S11307E0E2F730E08223932302C0959587954A95DA
S11307F0E2F7FB01808381E0089588518830B0F4EA
S113080040B321E030E0082E02C0220F331F0A94C7
S1130810E2F750E024233523A90102C055954795FA
S11308208A95E2F7FB01408381E0089580E0089512
S1130830883010F561110FC04BB321E030E0B901ED
S113084002C0660F771F8A95E2F7CB018095842357
S11308508BBB81E00895613009F07DC04BB321E08A
S113086030E0B90102C0660F771F8A95E2F7CB0129
S1130870842B8BBB81E0089598EF980F983010F586
S113088061110FC048B321E030E0B90102C0660F26
S1130890771F9A95E2F7CB018095842388BB81E08A
S11308A00895613009F059C048B321E030E0B9013E
S11308B002C0660F771F9A95E2F7CB01842B88BBA1
S11308C081E0089590EF980F983008F561110FC0FA
S11308D045B321E030E0B90102C0660F771F9A9555
S11308E0E2F7CB018095842385BB81E008956130D4
S11308F0B1F545B321E030E0B90102C0660F771FBE
S11309009A95E2F7CB01842B85BB81E00895885149
S1130910883038F561110FC042B321E030E0B901ED
S113092002C0660F771F8A95E2F7CB018095842376
S113093082BB81E008956130B1F442B321E030E03C
S1130940B90102C0660F771F8A95E2F7CB01842BA9
S113095082BB81E0089580E0089580E0089580E0FE
S1130960089580E0089580E008950F931F93CF9336
S1130970DF9380911D01811116C005E111E081E032
S1130980F8018087C0E6D0E060E088810E94180406
S1130990F801448155816681778125EB34E08981B2
S11309A00E94970516C08130A1F405E111E0F80119
S11309B01086C0E6D0E061E088810E941804F80146
S11309C0408151816281738125EB34E089810E94E9
S11309D09705DF91CF911F910F9108951F93CF93A6
S11309E0DF93C3E8D0E01882198211E01A831B82D6
S11309F0CE010E949F021C861D861E871F86CE0183
S1130A000E949F02EEE1F1E01082118283E0828372
S1130A100E948B05DF91CF911F9108957F928F9251
S1130A209F92AF92BF92CF92DF92EF92FF920F9379
S1130A301F93CF93DF93792E6A017B01C22F69E064
S1130A407DE380E090E0A70196010E94AE07CA0111
S1130A50B9010E94B3064B015C01D0E0BE010D2E2A
S1130A60000C880B990B0E94B50620E030E048EC9E
S1130A7052E40E941206A50194010E9441070E94BB
S1130A8084066B017C0105E111E0F8016083718348
S1130A908283938364E670E06C1B7D0B072E000C4D
S1130AA0880B990B0E94B50620E030E048EC52E434
S1130AB00E941206A50194010E9441070E94840627
S1130AC0F8016483758386839783108625EB34E06D
S1130AD0B701A601872D0E94970561E0809160000F
S1130AE00E941804DF91CF911F910F91FF90EF9016
S1130AF0DF90CF90BF90AF909F908F907F9008959C
S1130B00CF93C82F892F0E94C10560E08C2F0E94CB
S1130B101804CF91089580911E01811107C012BE5F
S1130B2082B78F7B82BF82B7877F82BF08958FB7DA
S1130B3080688FBF89B7816089BF30936A00209332
S1130B4069004F3F51056105710509F018F441959D
S1130B5042BF0EC0BB27A72F962F852F8093650019
S1130B6090936600A0936700B0936800419542BFDC
S1130B7083B7887F83BF93B780912001892B83BF7C
S1130B80089583B7887F83BF12BE89B78E7F89BFDC
S1130B9008951F920F920FB60F9211242F933F9333
S1130BA04F935F936F937F938F939F93AF93BF9371
S1130BB0EF93FF938091650090916600A091670088
S1130BC0B09168000197A109B109809365009093E1
S1130BD06600A0936700B0936800809165009091CF
S1130BE06600A0916700B0916800892B8A2B8B2B3B
S1130BF041F489B78E7F89BFE0916900F0916A0062
S1130C000995FF91EF91BF91AF919F918F917F9142
S1130C106F915F914F913F912F910F900FBE0F9065
S1130C201F9018950E9426060C9407070E9400073F
S1130C3058F00E94F90640F029F45F3F29F00C9423
S1130C40F00651110C943B070C94F6060E94180709
S1130C5068F39923B1F3552391F3951B550BBB27E7
S1130C60AA2762177307840738F09F5F5F4F220F2C
S1130C70331F441FAA1FA9F335D00E2E3AF0E0E823
S1130C8032D091505040E695001CCAF72BD0FE2F6D
S1130C9029D0660F771F881FBB1F26173707480701
S1130CA0AB07B0E809F0BB0B802DBF01FF279358B9
S1130CB05F4F3AF09E3F510578F00C94F0060C9487
S1130CC03B075F3FE4F3983ED4F3869577956795A9
S1130CD0B795F7959F5FC9F7880F911D96958795EE
S1130CE097F90895E1E0660F771F881FBB1F62170D
S1130CF073078407BA0720F0621B730B840BBA0BCB
S1130D00EE1F88F7E09508950E94200788F09F570A
S1130D1098F0B92F9927B751B0F0E1F0660F771F1B
S1130D20881F991F1AF0BA95C9F714C0B13091F011
S1130D300E943A07B1E008950C943A07672F782F80
S1130D408827B85F39F0B93FCCF3869577956795D6
S1130D50B395D9F73EF490958095709561957F4F42
S1130D608F4F9F4F0895E89409C097FB3EF49095E8
S1130D708095709561957F4F8F4F9F4F9923A9F070
S1130D80F92F96E9BB279395F695879577956795FF
S1130D90B795F111F8CFFAF4BB0F11F460FF1BC043
S1130DA06F5F7F4F8F4F9F4F16C0882311F096E9D6
S1130DB011C0772321F09EE8872F762F05C0662384
S1130DC071F096E8862F70E060E02AF09A95660F3D
S1130DD0771F881FDAF7880F9695879597F90895F6
S1130DE097F99F6780E870E060E008959FEF80ECDA
S1130DF0089500240A94161617061806090608957D
S1130E0000240A9412161306140605060895092EE2
S1130E100394000C11F4882352F0BB0F40F4BF2B51
S1130E2011F460FF04C06F5F7F4F8F4F9F4F089591
S1130E3057FD9058440F551F59F05F3F71F0479587
S1130E40880F97FB991F61F09F3F79F0879508956C
S1130E50121613061406551FF2CF4695F1DF08C08B
S1130E60161617061806991FF1CF869571056105A8
S1130E7008940895E894BB2766277727CB0197F950
S1130E8008950E9454070C9407070E94F90638F04D
S1130E900E94000720F0952311F00C94F0060C94A6
S1130EA0F60611240C943B070E94180770F3959FD3
S1130EB0C1F3950F50E0551F629FF001729FBB274D
S1130EC0F00DB11D639FAA27F00DB11DAA1F649FE9
S1130ED06627B00DA11D661F829F2227B00DA11D9C
S1130EE0621F739FB00DA11D621F839FA00D611D22
S1130EF0221F749F3327A00D611D231F849F600D43
S1130F00211D822F762F6A2F11249F5750409AF06B
S1130F10F1F088234AF0EE0FFF1FBB1F661F771FF7
S1130F20881F91505040A9F79E3F510580F00C94C2
S1130F30F0060C943B075F3FE4F3983ED4F38695A8
S1130F4077956795B795F795E7959F5FC1F7FE2B62
S1130F50880F911D9695879597F90895A1E21A2E09
S1130F60AA1BBB1BFD010DC0AA1FBB1FEE1FFF1F49
S1130F70A217B307E407F50720F0A21BB30BE40B99
S1130F80F50B661F771F881F991F1A9469F76095E0
S1130F907095809590959B01AC01BD01CF0108959A
S1070FA0F894FFCFEF
S1070FA40000010143
S9030000FC
