:100000000C942A000C9447000C9447000C94470071
:100010000C9447000C9447000C9447000C94470044
:100020000C9447000C9447000C9447000C94470034
:100030000C9447000C94D7030C94AB030C9447002A
:100040000C9447000C9447000C9447000C94470014
:100050000C94470011241FBECFE5D8E0DEBFCDBF12
:1000600010E0A0E6B0E0E0E1F8E002C005900D92FB
:10007000AE3DB107D9F720E0AEEDB0E001C01D9272
:10008000AC3EB207E1F70E94A1010C9406040C9467
:1000900000001F93CF93DF9300D0CDB7DEB71A8255
:1000A000198210E0CE0101960E94900389819A8105
:1000B000E12FF0E0E252FF4F80831F5F0D9791F731
:1000C000E12FF0E0E252FF4F10820F900F90DF918E
:1000D000CF911F91089581111EC08091DE00882369
:1000E00009F476C0833529F081E00895381372C091
:1000F00001C020E02F5F822F90E0FC01E252FF4F11
:100100003081332309F468C0FC01E852FF4F80813D
:100110008111ECCF08958130F1F48091DE008823C5
:1001200009F45CC0833529F081E00895381358C084
:1001300001C020E02F5F822F90E0FC01E252FF4FD0
:100140003081332309F44EC0FC01ED52FF4F808112
:100150008111ECCF08958230E9F48091DE0088238C
:1001600009F442C0873529F081E0089538133EC074
:1001700001C020E02F5F822F90E0FC01E252FF4F90
:1001800030813323A9F1FC01E253FF4F80818111BB
:10019000EDCF0895833071F58091DE00882361F101
:1001A000813429F081E00895381328C001C020E08F
:1001B0002F5F822F90E0FC01E252FF4F308133230A
:1001C000F9F0FC01E553FF4F80818111EDCF0895D7
:1001D00080E0089581E0089580E0089580E008952A
:1001E00081E0089580E0089580E0089581E0089519
:1001F00080E0089581E0089580E0089581E0089509
:1002000080E00895CF93DF93EC018881882339F053
:10021000219690E00E948A0389918111FACFDF91A3
:10022000CF9108950E9478030E947E01089587EA85
:1002300090E00E9402010E94490080E00E946B0051
:10024000811103C01092E800089581E00E946B00C4
:10025000811104C081E08093E800089582E00E944B
:100260006B00811104C082E08093E800089583E070
:100270000E946B00811104C083E08093E800089520
:1002800084E08093E80008958091E800823009F1CD
:1002900028F4882341F0813089F00895833021F1DA
:1002A000843039F108950E9483010E9492010E94D6
:1002B0009C0186E990E00E94020108950E94970146
:1002C0000E9492010E94880187E890E00E9402014A
:1002D00008950E948D010E9488010E949C0185E77B
:1002E00090E00E940201089581E790E00E940201DF
:1002F000089580E690E00E94020108958FEB90E05F
:100300000E94A801089561E080E00E94DB02089548
:1003100060E080E00E94DB02089561E081E00E94DD
:10032000DB02089560E081E00E94DB02089561E055
:1003300082E00E94DB02089560E082E00E94DB021E
:1003400008950E9412010E9417010E944401FBCFF0
:10035000CF93DF93EC01FC01AC01445F5F4F21E0E0
:1003600030E0DF019081913009F44AC038F09230DA
:1003700009F488C0933009F4C7C005C18281811196
:100380000DC09AB3B901018002C0660F771F0A94AD
:10039000E2F7862F809589238ABB0DC0813009F052
:1003A000F8C06AB3C901018002C0880F991F0A947E
:1003B000E2F7862B8ABB13968C91139781110EC09E
:1003C0009BB3B90111960C9002C0660F771F0A9477
:1003D000E2F7862F809589238BBBD5C012968C912E
:1003E0001297813009F0CFC06BB3C90111960C9000
:1003F00002C0880F991F0A94E2F7862B8BBBC3C0FB
:10040000828181110DC097B3B901018002C0660FCE
:10041000771F0A94E2F7862F8095892387BB0DC04A
:100420008A81813051F467B3C901018002C0880F0D
:10043000991F0A94E2F7862B87BB13968C9113972A
:1004400081110EC098B3B90111960C9002C0660FCD
:10045000771F0A94E2F7862F8095892388BB93C083
:1004600012968C911297813009F08DC068B3C90142
:1004700011960C9002C0880F991F0A94E2F7862B00
:1004800088BB81C0828181110DC094B3B901018004
:1004900002C0660F771F0A94E2F7862F80958923A2
:1004A00084BB0DC0813009F079C064B3C9010180FB
:1004B00002C0880F991F0A94E2F7862B84BB13961B
:1004C0008C91139781110EC095B3B90111960C90C0
:1004D00002C0660F771F0A94E2F7862F8095892362
:1004E00085BB51C012968C911297813009F04BC098
:1004F00065B3C90111960C9002C0880F991F0A9428
:10050000E2F7862B85BB3FC0828181110DC091B37C
:10051000B901018002C0660F771F0A94E2F7862FA7
:100520008095892381BB0CC08130E9F561B3C90195
:10053000018002C0880F991F0A94E2F7862B81BBC5
:1005400013968C91139781110EC092B3B901119635
:100550000C9002C0660F771F0A94E2F7862F8095F1
:10056000892382BB10C012968C911297813059F466
:1005700062B3C90111960C9002C0880F991F0A94AA
:10058000E2F7862B82BB3496E417F50709F0E9CE33
:100590000EC08381882309F413CFF5CF838188238C
:1005A00009F492CFF0CF8381882379F2ECCF81E0F8
:1005B000DF91CF910895883010F561110FC04BB3D2
:1005C00021E030E0B90102C0660F771F8A95E2F79B
:1005D000CB01809584238BBB81E00895613009F0C5
:1005E0007DC04BB321E030E0B90102C0660F771F38
:1005F0008A95E2F7CB01842B8BBB81E0089598EFBD
:10060000980F983010F561110FC048B321E030E029
:10061000B90102C0660F771F9A95E2F7CB0180956A
:10062000842388BB81E00895613009F059C048B344
:1006300021E030E0B90102C0660F771F9A95E2F71A
:10064000CB01842B88BB81E0089590EF980F983000
:1006500008F561110FC045B321E030E0B90102C0D7
:10066000660F771F9A95E2F7CB018095842385BBAF
:1006700081E008956130B1F545B321E030E0B90182
:1006800002C0660F771F9A95E2F7CB01842B85BBDA
:1006900081E008958851883038F561110FC042B368
:1006A00021E030E0B90102C0660F771F8A95E2F7BA
:1006B000CB018095842382BB81E008956130B1F441
:1006C00042B321E030E0B90102C0660F771F8A957E
:1006D000E2F7CB01842B82BB81E0089580E008958E
:1006E00080E0089580E0089580E0089580E0089516
:1006F00059988CE089B910BC80B5866880BD80B5FA
:10070000806880BD80B5806880BD80B5806880BD10
:1007100080E00895539A5D9BFECF8CB980E00895E8
:10072000009779F0549AFC01118210825F9BFECFF2
:100730005A9909C02CB130E0FC013183208380E05C
:10074000089582E0089583E00895579880E0089521
:10075000559880E008951F920F920FB60F921124C2
:100760002F933F934F935F936F937F938F939F93B9
:10077000AF93BF93EF93FF938091E9008CB90E94F0
:10078000A803E091E600F091E7000995FF91EF9151
:10079000BF91AF919F918F917F916F915F914F9199
:1007A0003F912F910F900FBE0F901F9018951F92A1
:1007B0000F920FB60F9211242F933F934F935F9395
:1007C0006F937F938F939F93AF93BF93EF93FF9319
:1007D000E091EA00F091EB008CB180830E94A503C8
:1007E000E091E400F091E5000995FF91EF91BF9150
:1007F000AF919F918F917F916F915F914F913F91B9
:100800002F910F900FBE0F901F901895F894FFCF67
:10081000496E76616C696420436F6D6D616E640D25
:10082000004F4B0D0059656C6C6F77204C45442090
:100830006973204F4E0D00526564204C4544206979
:1008400073204F4E0D00477265656E204C45442065
:100850006973204F4E0D00506C6561736520456EC5
:10086000746572206120436F6D6D616E640D0000D0
:100870000000000001000000020000415400574148
:0E08800049540053544F5000535441525400F9
:00000001FF
