:100000000C942A000C943C000C943C000C943C0092
:100010000C943C000C943C000C943C000C943C0070
:100020000C943C000C943C000C943C000C943C0060
:100030000C943C000C9419010C94ED000C943C00C1
:100040000C943C000C943C000C943C000C943C0040
:100050000C943C0011241FBECFE5D8E0DEBFCDBF1D
:1000600021E0A0E6B0E001C01D92A636B207E1F79C
:100070000E946B000C9448010C9400000E94C00088
:100080000E94720008951F93CF93DF9384E690E05F
:100090000E94D200809164008D3069F010E01F5FF3
:1000A000C12FD0E0CC59DF4FCE010E94D200888111
:1000B0008D30A9F701C010E01F5FE12FF0E0EC598F
:1000C000FF4F1082DF91CF911F91089584E690E059
:1000D0000E948D0008950E943E000E9443000E94ED
:1000E0006600FBCF6C9A8DB18C7F8DB98DB183602A
:1000F0008DB97098BC9AC49ABD9ABE98BF9A08955B
:100100006E9AC498FC0180818FB9779BFECF8FB126
:10011000FB018083C49A6E980895EF92FF920F932B
:100120001F93CF93DF931F92CDB7DEB7FC012081E1
:100130002223E1F07C01FEEFEF0EF11C8C01BE01E9
:100140006F5F7F4FC8010E9480000F5F1F4FF80153
:100150008081882321F00E151F0589F78701BE01D4
:100160006F5F7F4FC8010E94800002C08C01F7CFF3
:100170000F90DF91CF911F910F91FF90EF90089515
:1001800059988CE089B910BC80B5866880BD80B56F
:10019000806880BD80B5806880BD80B5806880BD86
:1001A00080E00895009779F0549AFC011182108242
:1001B0005F9BFECF5A9909C02CB130E0FC0131831E
:1001C000208380E0089582E0089583E008955798A1
:1001D00080E00895559880E008951F920F920FB621
:1001E0000F9211242F933F934F935F936F937F93BD
:1001F0008F939F93AF93BF93EF93FF93809163018E
:100200008CB90E94EA00E0916200F09163000995C8
:10021000FF91EF91BF91AF919F918F917F916F91DE
:100220005F914F913F912F910F900FBE0F901F90B4
:1002300018951F920F920FB60F9211242F933F9390
:100240004F935F936F937F938F939F93AF93BF93DE
:10025000EF93FF93E0916401F09165018CB180838D
:100260000E94E700E0916000F09161000995FF9124
:10027000EF91BF91AF919F918F917F916F915F911E
:100280004F913F912F910F900FBE0F901F90189597
:04029000F894FFCF10
:00000001FF
