:100000000C942A000C943C000C943C000C943C0092
:100010000C943C000C943C000C943C000C943C0070
:100020000C943C000C943C000C943C000C943C0060
:100030000C943C000C94E8000C94BC000C943C0024
:100040000C943C000C943C000C943C000C943C0040
:100050000C943C0011241FBECFE5D8E0DEBFCDBF1D
:1000600021E0A0E6B0E001C01D92A636B207E1F79C
:100070000E945B000C9417010C9400000E949E00EB
:100080000E946200089584E690E00E947300089543
:10009000CF9380916400882361F0C0E090E00E94DB
:1000A000B000CF5FEC2FF0E0EC59FF4F8081811161
:1000B000F5CFCF9108950E943E000E9443000E9418
:1000C0004800FBCF6C98BC98BD98BE9ABF98089525
:1000D0006E9AFC0180818FB9779BFECF8FB1FB01B7
:1000E00080836E980895CF92DF92EF92FF921F93D4
:1000F000CF93DF931F92CDB7DEB76C01BC01CE0169
:1001000001960E946800F6018081882371F010E05A
:100110001F5F7601E10EF11CB701CE0101960E942E
:100120006800F70180818111F3CF0F90DF91CF91AB
:100130001F91FF90EF90DF90CF90089559988CE039
:1001400089B910BC80B5866880BD80B5806880BDE7
:1001500080B5806880BD80B5806880BD80E00895EE
:10016000539A5D9BFECF8CB980E00895579880E04C
:100170000895559880E008951F920F920FB60F9240
:1001800011242F933F934F935F936F937F938F939C
:100190009F93AF93BF93EF93FF93809163018CB9CB
:1001A0000E94B900E0916200F09163000995FF910F
:1001B000EF91BF91AF919F918F917F916F915F91DF
:1001C0004F913F912F910F900FBE0F901F90189558
:1001D0001F920F920FB60F9211242F933F934F93BC
:1001E0005F936F937F938F939F93AF93BF93EF939F
:1001F000FF93E0916401F09165018CB180830E94CE
:10020000B600E0916000F09161000995FF91EF91D7
:10021000BF91AF919F918F917F916F915F914F911E
:100220003F912F910F900FBE0F901F901895F8944B
:02023000FFCFFE
:00000001FF
