S01000004D4355322041544D2E73726563FB
S11300000C942A000C94A1110C9447000C94470002
S11300100C9447000C9447000C9447000C94470040
S11300200C9447000C9447000C9447000C947612EF
S11300300C94E2110C9431130C9405130C944700A6
S11300400C9447000C9447000C9447000C94470010
S11300500C94470011241FBECFE5D8E0DEBFCDBF0E
S113006017E0A0E6B0E0E4E3FCE202C005900D92E4
S1130070A238B107D9F728E0A2E8B7E001C01D9281
S1130080AF32B207E1F70E948A0E0C9418160C9452
S11300900000109260000E94D80D0E949A110895E9
S11300A0CF93DF931F92CDB7DEB7CE0101960E94A6
S11300B0460E89810F90DF91CF910895809166005B
S11300C08823E9F0909115089D30D9F0891729F01B
S11300D081E00895381317C001C020E02F5F822FFC
S11300E090E0FC01EA59FF4F3081332371F0FC01A9
S11300F0EB5EF74F80818D3069F780E0089580E0F2
S1130100089580E0089581E0089580E008958F9235
S11301109F92AF92BF92CF92DF92EF92FF926115BE
S1130120710581059105B1F04B015C01C12CD12C05
S1130130760148EE53E060E070E080E00E94221215
S11301408FEFC81AD80AE80AF80A8C149D04AE0482
S1130150BF0479F7FF90EF90DF90CF90BF90AF90FE
S11301609F908F900895CF93DF93EC010E94FF122C
S11301708881882339F0219690E00E94D1128991D8
S11301808111FACF0E94EC12DF91CF9108950F9361
S11301901F93CF93DF93CAEDD7E006EF17E0CE01AC
S11301A00E94D9112196C017D107C9F7DF91CF91C9
S11301B01F910F910895CF93DF938091DB078733CD
S11301C021F481E08093830712C0109283070FC04B
S11301D08D918993AE17BF07D9F7A6EFB7E020EF4B
S11301E037E081918D932E173F07D9F707C0ACED07
S11301F0B7E0CCECD7E0E6EEF7E0EACFE0E0F8E0F9
S1130200AAEDB7E056968C915697808357968C91B9
S11302105797818358968C915897828359968C91DD
S11302208383148280E0DF91CF910895CF93C0E05F
S11302300E94390B8134E1F3EC2FF0E0EA52F84FDD
S113024080838AE20E94BA0CCF5FC43089F7CF91D1
S11302500895909100088091D60798130FC0E1E0AB
S1130260F8E0A7EDB7E024E038E091918D91981380
S113027007C0E217F307C9F790E003C091E001C09B
S113028091E081E0913009F480E008950F931F9389
S1130290CF93DF93C4ECD7E00CEC17E089910E9474
S11302A0BA0CC017D107D1F7DF91CF911F910F91ED
S11302B008950F931F93CF93DF9391E080E028E795
S11302C0A4ECB7E03EE202C08F5F9F5F853021F46B
S11302D015963C931597F8CFE82FF0E0EC53F84FC0
S11302E02083983088F30E94450D8AE790E00E94AD
S11302F0490D60E081E00E94AC0C0E944601C0E020
S113030004EC17E0DEE20E94390B8134E1F3C530DE
S113031059F4F801D583868360E081E00E94AC0C37
S11303200E944601C7E0EFCFEC2FF0E0EC53F84F0A
S1130330808360E081E00E94AC0C0E944601CF5FA4
S1130340C83009F7E4ECF7E081E002C08F5F319632
S11303508630E1F3908190539A3020F48830B0F3E2
S113036090E001C091E081E0913009F480E0DF91F8
S1130370CF911F910F910895CF92DF92EF92FF9248
S11303800F931F93CF93DF936B017C018A010E942B
S11303904214D62FC72F072E000C880B990B0E94EE
S11303A07A149B01AC01C701B6010E945E1320E0E0
S11303B030E048EC52E40E942F150E944214CB0115
S11303C06AE070E00E94AC15805DF8018783605D8F
S11303D066838EE28583359698010AE010E08D2FBE
S11303E09C2FB8010E94AC15805D8293D62FC72F35
S11303F0E217F307A1F7DF91CF911F910F91FF90BF
S1130400EF90DF90CF900895CF92DF92EF92FF921A
S1130410F62F6623A9F061E070E040E090E0E1E0AF
S1130420C82ED12CE12CF12C262F372F592FC701A0
S1130430B6010E949C15482FEF5FFE17A8F704C071
S113044061E070E080E090E0FF90EF90DF90CF906B
S113045008958F929F92AF92BF92CF92DF92EF92C4
S1130460FF920F931F93CF93DF937C018C01DCEFFA
S1130470D60F0F2EF7EFDF2EF02DD60E812C912CF8
S11304805401F801C1918F016D2F8AE00E9404028A
S11304909B01AC01AC2FB0E0D0970E94FC15860EF6
S11304A0971EA81EB91ED150DD11EBCFF70186812E
S11304B090E0C097BC01660F771F880F991F880FC3
S11304C0991F880F991F860F971F678170E06053EB
S11304D07109680F791F072E000C880B990B0E9475
S11304E07A1420E030E048EC52E40E94D0136B010F
S11304F07C01C501B4010E9478149B01AC01C701C1
S1130500B6010E945F13DF91CF911F910F91FF906D
S1130510EF90DF90CF90BF90AF909F908F90089511
S1130520CF92DF92EF92FF92CF93C12CD12C760120
S11305306894C1F80E94450D89E890E00E94490D35
S113054060E081E00E94AC0C0E9416010E94290127
S1130550C82F813029F10E94450D8AE990E00E945C
S1130560490D60E081E00E94AC0C89EA90E00E94B1
S1130570490DC701B6010E94690D68EE73E080E081
S113058090E00E94870081E0C81AD108E108F108D0
S11305908FEFC816D806E806F80661F6C0E00CC06E
S11305A00E94450D88EB90E00E94490D68EE73E0CF
S11305B080E090E00E9487008C2FCF91FF90EF9015
S11305C0DF90CF900895CF93DF93C2E0D0E064E151
S11305D070E080E090E00E948700BE016D5F774F7D
S11305E0CE010E94B80A2196CA30D10581F7DF9165
S11305F0CF910895CF92DF92EF92FF92CF930E9412
S1130600E30268E084EC97E00E9429026B017C011C
S113061068E085E098E00E9429029B01AC01C1E0FA
S1130620C701B6010E942A1518160CF0C0E081E03B
S11306308C27CF91FF90EF90DF90CF900895CF92C9
S1130640DF92EF92FF92CF93E8EBF7E0A1E9B7E0F6
S113065020EC37E081918D93E217F307D9F768E036
S113066081E997E00E9429026B017C0160930D08E7
S113067070930E0880930F089093100868E084EC40
S113068097E00E9429029B01AC016093C00770931C
S1130690C1078093C2079093C307C1E0C701B601A5
S11306A00E942A1518160CF0C0E08C2FCF91FF90F1
S11306B0EF90DF90CF900895EDEAF7E080812181FB
S11306C090E0922B08950F931F93CF93DF930E9492
S11306D0450D89EC90E00E94490DC1E9D7E009E994
S11306E017E089910E94BA0CC017D107D1F760EDC9
S11306F077E080E090E00E948700DF91CF911F9126
S11307000F910895EF92FF920F931F93CF93DF936E
S11307102091C0073091C1074091C2075091C3078F
S113072060910D0870910E0880910F089091100847
S11307300E945E1360930D0870930E0880930F0857
S11307409093100841E957E00E94BC010E945C03A9
S113075023E1AC01249FC001259F900D1124EC01DD
S1130760229601E917E00F2EF9E9EF2EF7E0FF2EAC
S1130770F02D64E170E080E090E00E948700F801D1
S113078061918F01CE010E94980A21960E151F05D2
S113079081F781E0DF91CF911F910F91FF90EF904E
S11307A00895EF92FF920F931F93CF9389E997E0F7
S11307B00E94D712809199078D3079F0C0E0CF5F05
S11307C0EC2EF12C87010756184FC8010E94D7124E
S11307D0F80180818D3099F703C0E12CF12CC0E041
S11307E0F701E756F84F108281E08C0FCF911F91EB
S11307F00F91FF90EF900895CF93DF93C9E9D7E06D
S11308008DED90E00E94B3000E94D103893029F05D
S11308108FE091E00E94B300F3CF2D81A9E9B7E006
S1130820FD0191E002C09F5F3196963039F42E327B
S1130830D1F38FE091E00E94B300E2CF8081805336
S11308408A3028F08CE491E00E94B300D9CF98302C
S113085050F3E8EBF7E020EC37E08D918193E21759
S1130860F307D9F781E0DF91CF9108950F931F9398
S1130870CF93DF93C9E9D7E08FE891E00E94B300FA
S11308800E94D103893029F08BEB91E00E94B300E0
S1130890F3CF2D8109E917E0F80191E002C09F5FD1
S11308A03196963039F42E32D1F38BEB91E00E94DD
S11308B0B300E2CF808180538A3028F086EF91E044
S11308C00E94B300D9CF983050F3C2E0D0E0F801D1
S11308D061918F01CE010E94980A219662E370E033
S11308E080E090E00E948700CA30D10581F781E062
S11308F0DF91CF911F910F910895EF92FF920F9383
S11309001F93CF93DF93E12CFF24F39409E917E0BD
S1130910C2EAD7E087E392E00E94B3000E94D103C9
S11309208A3031F089E592E00E94B3009F2D01C026
S11309309E2DF801808180538A3030F4EAE9F7E093
S1130940819180538A3028F086E892E00E94B300B7
S1130950E1CFEC17FD07A1F79111DCCFA9E9B7E0CE
S1130960EFEAF7E028EB37E08D918193E217F30784
S1130970D9F781E0DF91CF911F910F91FF90EF9014
S113098008950F931F93CF93DF9300D0CDB7DEB7B5
S11309901A821982BE016F5F7F4F80E090E00E944F
S11309A0B80A09811A8162E370E080E090E00E9455
S11309B08700BE016F5F7F4F81E090E00E94B80A1C
S11309C080E090E09981802B912B0F900F90DF9124
S11309D0CF911F910F910895EF92FF920F931F9360
S11309E0CF93DF9300D000D01F92CDB7DEB7FE01C6
S11309F0319685E0DF011D928A95E9F78DE08D83BC
S1130A000E94C104AC01892B19F480E3898330C0AE
S1130A10E1E0F0E0EC0FFD1FE10FF11D9A01ADECF8
S1130A20BCEC0E94E21596958795969587959695C8
S1130A3087959C01220F331F880F991F880F991FD8
S1130A40880F991F820F931F9A01281B390BC90124
S1130A50805D80839A010E94E215AC01569547950A
S1130A60569547955695479511504115510581F670
S1130A708E010F5F1F4F7E0136E0E30EF11CD8019B
S1130A808D918D0190E00E94D1120E151F05B9F7CA
S1130A900F900F900F900F900F90DF91CF911F91B7
S1130AA00F91FF90EF9008958C3D25E0920738F068
S1130AB081EC92E00E94B30080E090E0089543E16D
S1130AC0489F9001499F300D1124C9010A96089549
S1130AD0AF92BF92CF92DF92EF92FF920F931F9348
S1130AE0CF93DF930E94C1045C010E9454050097D8
S1130AF0D1F12FEFA21AB20AEDEAF7E0A082B18297
S1130B000F2EF0ECCF2EF7E0DF2EF02DEF019C013D
S1130B102D5A3740790187010C0F1D1F6EE170E0DB
S1130B2080E090E00E9487006991C8010E94980AC1
S1130B30CC15DD0581F76EE170E080E090E00E9465
S1130B4087006A2D80E090E00E94980A6EE170E0D0
S1130B5080E090E00E9487006B2D81E090E00E948D
S1130B60980A81E001C080E0DF91CF911F910F913D
S1130B70FF90EF90DF90CF90BF90AF90089560E02A
S1130B8080E090E00E94980A62E370E080E090E0E8
S1130B900E94870060E081E090E00E94980A089536
S1130BA0EF92FF920F931F93CF93DF9323E1AC0156
S1130BB0249FC001259F900D1124EC0129977C01ED
S1130BC05AE0E50EF11C09E010E0081B190BB8010E
S1130BD06C0F7D1F6355784FCE010E94B80A64E103
S1130BE070E080E090E00E9487002196CE15DF053A
S1130BF071F7DF91CF911F910F91FF90EF900895BE
S1130C009091F6078091AF0798130FC0E7EFF7E0D4
S1130C10A0EBB7E02FEF37E091918D91981307C0C7
S1130C20E217F307C9F781E0089580E0089580E0B2
S1130C3008950F931F93CF93DF930E94C1048C01F7
S1130C40892B79F0C1E0D0E0CE010E94D0050E944A
S1130C500006813041F021960C171D07A8F790E09B
S1130C6003C090E001C091E081E0913009F080E0A0
S1130C70DF91CF911F910F91089580918307813067
S1130C8009F076C10E94450D81ED92E00E94490D64
S1130C900E94450D0E949002813009F03EC10E94DD
S1130CA0450D84EE92E00E94490D60E081E00E94CF
S1130CB0AC0C8CEC97E00E94490D60ED77E080E08D
S1130CC090E00E9487000E945901811107C00E9490
S1130CD0450D84EF92E00E94490D73C10E94450DB9
S1130CE081E093E00E94490D0E941906813009F0C9
S1130CF0F0C00E94FA02813009F0BFC00E941F03B5
S1130D00813009F08EC00E94450D89E093E00E9475
S1130D10490D60E081E00E94AC0C83E193E00E9405
S1130D20490D0E94390B813309F04CC00E94FF1217
S1130D300E9482038130A9F70E94450D8CE193E063
S1130D400E94490D60ED77E080E090E00E9487000A
S1130D500E94450D0E94630360ED77E080E090E01F
S1130D600E9487000E94450D89E393E00E94490D8B
S1130D7060ED77E080E090E00E9487000E940E0E14
S1130D800E94450D89E493E00E94490D0E94F30DF1
S1130D9060ED77E080E090E00E9487000E94450DBE
S1130DA088E593E00E94490D60ED77E080E090E0F3
S1130DB00E9487000E94450D81E0809360000E949C
S1130DC0EC12FFC0823309F0ACCF0E94450D82E6DD
S1130DD093E00E94490D60ED77E080E090E00E948E
S1130DE087000E94450D89E493E00E94490D0E940A
S1130DF0F30D60ED77E080E090E00E9487000E94B0
S1130E00450D88E593E00E94490D60ED77E080E0B0
S1130E1090E00E9487000E94450D81E0809360006D
S1130E20D0C00E94450D8BE693E00E94490D60ED11
S1130E3077E080E090E00E9487000E94450D89E4FD
S1130E4093E00E94490D0E94F30D60ED77E080E08D
S1130E5090E00E9487000E94450D88E593E00E947F
S1130E60490D60ED77E080E090E00E9487000E94E9
S1130E70450D81E080936000A4C00E94450D8EE77B
S1130E8093E00E94490D60ED77E080E090E00E94DD
S1130E9087000E94450D89E493E00E94490D0E9459
S1130EA0F30D60ED77E080E090E00E9487000E94FF
S1130EB0450D88E593E00E94490D60ED77E080E000
S1130EC090E00E9487000E94450D81E080936000BD
S1130ED078C00E94450D85E993E00E94490D0E9467
S1130EE0450D83EB93E00E94490D0E94D80D60EDFF
S1130EF077E080E090E00E9487000E94450D8FEC2F
S1130F0093E00E94490D60ED77E080E090E00E945C
S1130F10870081E08093600054C00E94D80D0E9435
S1130F20450D8FEE93E00E94490D60ED77E080E07F
S1130F3090E00E9487000E94450D8FE094E00E949B
S1130F40490D60ED77E080E090E00E9487000E9408
S1130F50450D8FEC93E00E94490D60ED77E080E051
S1130F6090E00E94870081E08093600080E0089513
S1130F700E94450D8AE294E00E94490D60ED77E0FD
S1130F8080E090E00E9487000E94D80D0E94450DE9
S1130F9086E494E00E94490D60ED77E080E090E003
S1130FA00E9487000E94450D85E694E00E94490D49
S1130FB060ED77E080E090E00E94870081E080931C
S1130FC06000089580916000811108C00E94450D61
S1130FD00E94C7000E94DB000E943D0608950E9403
S1130FE0D103909161008091990798130FC0E2E6B4
S1130FF0F0E0AAE9B7E025E630E091918D919813ED
S113100007C0E217F307C9F790E003C091E001C0FD
S113101091E081E0913009F480E00895EF92FF922D
S11310200F931F93CF93DF9300D000D01F92CDB7BF
S1131030DEB70E945C038C01FE01319685E0DF017E
S11310401D928A95E9F70115110531F480E390E0CA
S11310500E94B30080E08BC086E894E00E94B30055
S1131060FE013596AE014E5F5F4F9801ADECBCECCE
S11310700E94E215969587959695879596958795FE
S11310809C01220F331F880F991F880F991F880F07
S1131090991F820F931F9801281B390BC901805D8A
S11310A0829398010E94E2158C0116950795169576
S11310B00795169507954E175F07B9F698010E9494
S11310C0E2159695879596958795969587959C01B3
S11310D0220F331F880F991F880F991F880F991F9C
S11310E0820F931F081B190B005D098385EC94E0A4
S11310F00E94B300CE0101960E94B30088EF94E0F1
S11311000E94B3008BEC94E00E94B3000F2EFFEA20
S1131110EF2EF7E0FF2EF02D08EB17E0D7018D91AD
S11311207D0190E00E94D1120E151F05B9F788EFDA
S113113094E00E94B30088ED94E00E94B3000F2E67
S1131140F0ECEF2EF7E0FF2EF02DF80181918F01E6
S113115090E00E94D1120E151F05B9F788EF94E0B4
S11311600E94B30086E894E00E94B30081E00F90EF
S11311700F900F900F900F90DF91CF911F910F91CF
S1131180FF90EF9008950F931F93CF93DF930E94E6
S1131190C1048C01892B71F48FE894E00E94B300A0
S11311A082EE94E00E94B3008FE894E00E94B300C2
S11311B081E01DC08AEF94E00E94B3000E94EC0419
S11311C088EF94E00E94B3008CE894E00E94B3009E
S11311D0C1E0D0E0CE010E94D0050E940E08219605
S11311E00C171D07B8F786E894E00E94B300DF915E
S11311F0CF911F910F910895CF93DF93C3E08AE1BC
S113120095E00E94B3000E94EF078130C1F1C15004
S113121089F581E395E00E94B3008CE090E00E94A0
S1131220D112C1E3D0E0CE010E94D11268EE73E086
S113123080E090E00E9487008CE090E00E94D11250
S11312402196CA33D10579F780E595E00E94B30071
S11312500E94450D83E995E00E94490D60E081E01C
S11312600E94AC0C81EA95E00E94490D81E08093D4
S1131270820784C08FEA95E00E94B300C0CF0E9429
S11312809A110E94450D8FEB95E00E94490D0E9432
S1131290FF12C9E9D7E08EED95E00E94B30086EF16
S11312A095E00E94B3008CE096E00E94B30083E2D4
S11312B096E00E94B30082E496E00E94B3008BE6BD
S11312C096E00E94B3000E94D103833028F084E7A3
S11312D096E00E94B300DFCF8881833361F128F464
S11312E0813341F08233E9F044C0843339F18533EA
S11312F0A1F13FC00E947D04813099F40E94FC0357
S1131300813079F40E946805882329F284E896E004
S11313100E94B30083EB96E00E94B3000E94EC04A9
S1131320BACF0E943604813009F0B5CF84EE96E03E
S11313300E94B300B0CF0E94C308ADCF0E94BF0586
S11313408CE894E00E94B30086E197E00E94B30029
S11313508BE894E00E94B3009ECF80E595E00E9464
S1131360B30081E0809382070E9493110E94EC12E3
S113137005C084E796E00E94B3008DCF80E0DF9142
S1131380CF910895E0911108F091120890819D3059
S113139021F0809184078530D1F4E0918407F0E056
S11313A0EB5EF74F8DE080830E945E00811104C0E4
S11313B0109282070E94FC0810928407E5E1F8E08D
S11313C010821182128213821482158208C0E82FBF
S11313D0F0E0EB5EF74F90838F5F8093840781E0AA
S11313E0809382070895CF92DF92EF92FF92CF937A
S11313F00E94E30268E085E098E00E9429026B0104
S11314007C010E944214672B69F0C1E020E03FEFA9
S11314104FE757E4C701B6010E94CB13811103C003
S1131420C0E001C0C0E08C2FCF91FF90EF90DF901F
S1131430CF9008950E940B120E94BF120E94C811FF
S11314400E94670C0E94E30A0E948D0A0E94B10D5B
S113145083E00E946F1189E490E00E946A1165E0C4
S113146080E00E941F0E62EC79E080911108909157
S113147012080E94EF120E94F309811105C081E451
S113148097E00E94B300089581E080938207089555
S11314900E94F309813019F48093820704C080917B
S11314A082078130C9F50E94450D83E995E00E94C9
S11314B0490D60E081E00E94AC0C81EA95E00E9455
S11314C0490D0E94390B813369F40E9493110E94E3
S11314D0450D81E697E00E94490D809160008111DD
S11314E0FCCF0895823369F70E94450D81E797E0A8
S11314F00E94490D60E081E00E94AC0C0E94500003
S1131500682F70E080E090E00E94690D60ED77E064
S113151080E090E00E9487000895EBE1F8E081E02C
S1131520828384E680831182CF010E94FE10089595
S1131530CF93DF9300D01F92CDB7DEB76B8399832F
S11315408A8380E50E940911CE0101960E9444110C
S1131550CE0102960E944411CE0103960E944411CA
S11315600E9464110F900F900F90DF91CF91089516
S11315700F931F93CF93DF9300D0CDB7DEB78B01CA
S113158099838A8380E50E940911CE0101960E9405
S11315904411CE0102960E94441180E50E94261156
S11315A080E090E00196883823E19207D9F7C801DA
S11315B00E9457110E9464110F900F90DF91CF91F8
S11315C01F910F9108950F931F93CF93DF93CEE153
S11315D0D8E011E0188319821A82CE010E94FD0E10
S11315E0188319831A82CE010E94FD0E188382E0AB
S11315F089831A82CE010E94FD0E188303E00983B9
S11316001A82CE010E94FD0E088384E089831A8326
S1131610CE010E94FD0E088385E089831A83CE01E2
S11316200E94FD0E088386E089831A83CE010E94FE
S1131630FD0E088387E089831A83CE010E94FD0E84
S113164041E060E081E00E94521041E061E081E00D
S11316500E94521041E062E081E00E94521041E099
S113166063E081E00E945210DF91CF911F910F91AE
S113167008956F927F928F929F92AF92BF92CF9272
S1131680DF92EF92FF920F931F93CF93DF931F92FA
S1131690CDB7DEB70F2EFCE66F2EF0E07F2EF02DD7
S11316A0A12CB12C41E064E083E00E94521041E09F
S11316B065E083E00E94521041E066E083E00E940E
S11316C0521041E067E083E00E945210F3016191FF
S11316D03F0140E083E00E9452100F2EF0E7EF2E0E
S11316E0F0E0FF2EF02DC12CD12C812C912C06C0C2
S11316F0FFEF8F1A9F0A8FEFE81AF80A8701EFEFBE
S1131700CE1ADE0AAE014F5F5F4FF701608181E0C0
S11317100E94FA0F8981811152C0AE014F5F5F4F61
S1131720F801608181E00E94FA0F89818823A9F37E
S1131730F1E0AF16B104E1F024F4A114B10451F0C6
S11317403EC0E2E0AE16B10401F1F3E0AF16B1041D
S113175049F135C0C4018114910409F43FC08130BA
S11317609105F1F182309105E9F1039741F53CC00F
S1131770C40181149104D1F181309105C9F1823001
S11317809105C1F10397D9F437C0C40181149104C0
S1131790A9F181309105A1F18230910599F1039766
S11317A071F432C0C4018114910481F18130910536
S11317B079F18230910571F1039791F52DC084E0A0
S11317C0C816D1040CF494CFEFEFAE1ABE0AF4E0BD
S11317D0AF16B10409F066CF81E428C087E326C0C0
S11317E084E324C081E322C08FE320C088E31EC0C9
S11317F085E31CC082E31AC080E318C089E316C0E5
S113180086E314C083E312C08DE310C08FE20EC0E0
S11318108AE20CC08DE20AC08BE208C081E406C0F3
S113182084E0C816D1040CF463CFF8CF0F90DF9195
S1131830CF911F910F91FF90EF90DF90CF90BF90C9
S1131840AF909F908F907F906F90089541E063E0F8
S113185080E00E94521048E853E160E070E080E0CC
S11318600E94221240E063E080E00E94521008953A
S1131870CF93C82F60E080E00E94EF106C2F607F50
S113188080E00E94EF1040E061E080E00E9452108E
S113189040E062E080E00E9452100E94260C60E06A
S11318A080E00E94EF106C2F6295607F80E00E94C0
S11318B0EF1040E061E080E00E94521040E062E0FE
S11318C080E00E9452100E94260CCF9108950E943D
S11318D00B1261E080E00E94CB10EEE1F8E0108290
S11318E011821282CF010E94FD0E40E062E080E08E
S11318F00E94521040E063E080E00E94521040E0F9
S113190061E080E00E94521040E25EE460E070E03A
S113191080E00E94221283E30E94380C48E853E1DD
S113192060E070E080E00E94221282E30E94380CA2
S113193048E853E160E070E080E00E94221288E20F
S11319400E94380C8CE00E94380C86E00E94380C0F
S113195081E00E94380C0895811105C080E8860F4B
S11319600E94380C0895813021F480EC860F0E9487
S1131970380C0895CF93C82F682F607F80E00E94B1
S1131980EF1041E061E080E00E94521040E062E02C
S113199080E00E9452100E94260C6C2F6295607F9A
S11319A080E00E94EF1041E061E080E00E9452106C
S11319B040E062E080E00E9452100E94260CCF9129
S11319C008954F925F926F927F92AF92BF92CF929F
S11319D0DF92EF92FF920F931F93CF936B017C01E1
S11319E05A01611571058105910529F4FA011182E5
S11319F080E380833CC09B01AC01C0E00F2EFAE081
S1131A004F2E512C612C712CF02DCA01B901A30168
S1131A1092010E94C015CF5F211531054105510582
S1131A20A1F719C085010C0F111D01501109C7013F
S1131A30B601A30192010E94C015605DF8016083A4
S1131A40C22ED32EE42EF52EC150C114D104E104CC
S1131A50F10441F70CC0F501EC0FF11D10820F2EBB
S1131A60FAE04F2E512C612C712CF02DDBCFCF914D
S1131A701F910F91FF90EF90DF90CF90BF90AF90A8
S1131A807F906F905F904F90089581E00E94380C92
S1131A9008950F931F93CF938C01C0E011C0CF5FC3
S1131AA00E94BA0CC03121F480EC0E94380C08C0AA
S1131AB0C03231F40E94450D80E80E94380CC0E029
S1131AC0F80181918F018111EACFCF911F910F917C
S1131AD00895CF93DF93CDB7DEB72A970FB6F89466
S1131AE0DEBF0FBECDBFAE014F5F5F4F0E94E10C62
S1131AF0CE0101960E94490D2A960FB6F894DEBFD6
S1131B000FBECDBFDF91CF9108958F929F92AF9278
S1131B10BF92CF92DF92EF92FF926115710581051A
S1131B209105B1F04B015C01C12CD12C760148EE3A
S1131B3053E060E070E080E00E9422128FEFC81A48
S1131B40D80AE80AF80A8C149D04AE04BF0479F795
S1131B50FF90EF90DF90CF90BF90AF909F908F90C9
S1131B6008950F931F93CF93DF930E940B12CEE13E
S1131B70D8E002E0088386E0898311E01A831B829F
S1131B80CE010E94FD0E088387E089831A831B829D
S1131B90CE010E94FD0E088385E089831A831B828F
S1131BA0CE010E94FD0EDF91CF911F910F910895F8
S1131BB041E066E082E00E94521040E067E082E08B
S1131BC00E94521060ED77E080E090E00E94850D65
S1131BD040E066E082E00E94521040E067E082E06C
S1131BE00E945210089540E066E082E00E94521084
S1131BF041E067E082E00E94521060ED77E080E00F
S1131C0090E00E94850D40E066E082E00E94521060
S1131C1040E067E082E00E945210089541E065E0F0
S1131C2082E00E94521060ED77E080E090E00E9434
S1131C30850D40E065E082E00E9452100895CF9344
S1131C40DF93C82FD62FE3E2F8E0482F828387E0A2
S1131C50682F848381E0382F818320912308509159
S1131C60260870912808809129080E94910ED0932B
S1131C702208C11108C0EEE1F8E01082118212823C
S1131C80CF010E94FD0EDF91CF910895CF92DF9294
S1131C90EF92FF920F931F93CF93DF9300D0CDB7B2
S1131CA0DEB78C01EEE1F8E0108211821282CF01DE
S1131CB00E94FD0ECE0101960E94EC0E69817A818C
S1131CC080E090E00E9478146B017C01609122080E
S1131CD070E080E090E00E947A149B01AC016AE01D
S1131CE077ED83E291E40E94D0139B01AC01C7011C
S1131CF0B6010E94D0130E944914F80160830F902A
S1131D000F90DF91CF911F910F91FF90EF90DF9093
S1131D10CF9008950E941A0A0E94480A0E94E2077E
S1131D20FBCFCF93DF93CDB7DEB727970FB6F894E9
S1131D30DEBF0FBECDBF29833A834B835C836D83A3
S1131D407E838F8386B1887F86B996B18D81892BF6
S1131D5086B9359826B19F8130E2939FC001112442
S1131D60822B86B9339896B18E81880F880F880F9D
S1131D70892B86B987B1807E87B997B18B81892BEE
S1131D8087B987B18F7387B927B19A8130E4939F5C
S1131D90C0011124822B87B93D9827B19C8130E280
S1131DA0939FC0011124822B87B980B78F7180BFA4
S1131DB020B7998130E2939FC0011124822B80BF08
S1131DC0379A27960FB6F894DEBF0FBECDBFDF91CA
S1131DD0CF910895369A0895CF93DF93EC01349A06
S1131DE00E94EA0E349BFECF84B125B190E0922B81
S1131DF099838883DF91CF910895FC01808181309C
S1131E0009F444C038F0823009F47CC0833009F40A
S1131E10B5C0EEC0828181110DC02AB381E090E08B
S1131E20018002C0880F991F0A94E2F780958223EB
S1131E308ABB0DC0813059F42AB381E090E001805F
S1131E4002C0880F991F0A94E2F7822B8ABB838110
S1131E5081110DC02BB381E090E0018002C0880F96
S1131E60991F0A94E2F7809582238BBBC1C081300D
S1131E7009F0BEC02BB381E090E0018002C0880F5E
S1131E80991F0A94E2F7822B8BBBB2C08281811125
S1131E900DC027B381E090E0018002C0880F991F34
S1131EA00A94E2F78095822387BB0DC0813059F4F0
S1131EB027B381E090E0018002C0880F991F0A9443
S1131EC0E2F7822B87BB838181110DC028B381E0A7
S1131ED090E0018002C0880F991F0A94E2F7809570
S1131EE0822388BB85C0813009F082C028B381E099
S1131EF090E0018002C0880F991F0A94E2F7822BB8
S1131F0088BB76C0828181110DC024B381E090E04A
S1131F10018002C0880F991F0A94E2F780958223FA
S1131F2084BB0DC0813059F424B381E090E001807A
S1131F3002C0880F991F0A94E2F7822B84BB838125
S1131F4081110DC025B381E090E0018002C0880FAB
S1131F50991F0A94E2F78095822385BB49C081309A
S1131F6009F046C025B381E090E0018002C0880FEB
S1131F70991F0A94E2F7822B85BB3AC082818111B2
S1131F800DC021B381E090E0018002C0880F991F49
S1131F900A94E2F78095822381BB0DC0813059F405
S1131FA021B381E090E0018002C0880F991F0A9458
S1131FB0E2F7822B81BB838181110DC022B381E0C2
S1131FC090E0018002C0880F991F0A94E2F780957F
S1131FD0822382BB0DC0813059F422B381E090E0AA
S1131FE0018002C0880F991F0A94E2F7822B82BBFA
S1131FF081E008958130D1F028F0823059F18330A6
S1132000E9F1089529B381E090E0062E02C0880F1B
S1132010991F0A94E2F730E08223932302C0959536
S113202087956A95E2F7FA018083089526B381E0E3
S113203090E0062E02C0880F991F0A94E2F730E060
S11320408223932302C0959587956A95E2F7FA0156
S11320508083089523B381E090E0062E02C0880FA8
S1132060991F0A94E2F730E08223932302C09595E6
S113207087956A95E2F7FA018083089520B381E099
S113208090E0062E02C0880F991F0A94E2F730E010
S11320908223932302C0959587956A95E2F7FA0106
S11320A080830895813019F130F08230E1F183307A
S11320B009F454C06DC041110CC02BB381E090E011
S11320C002C0880F991F6A95E2F7809582238BBB23
S11320D060C0413009F05CC02BB381E090E002C0E5
S11320E0880F991F6A95E2F7822B8BBB52C041116E
S11320F00CC028B381E090E002C0880F991F6A9554
S1132100E2F78095822388BB43C0413009F040C088
S113211028B381E090E002C0880F991F6A95E2F726
S1132120822B88BB35C041110CC025B381E090E0FF
S113213002C0880F991F6A95E2F78095822385BBB8
S113214027C0413029F525B381E090E002C0880F13
S1132150991F6A95E2F7822B85BB1AC041110CC006
S113216022B381E090E002C0880F991F6A95E2F7DC
S11321708095822382BB0CC0413051F422B381E0AC
S113218090E002C0880F991F6A95E2F7822B82BB08
S1132190089581E00895813069F028F0823089F053
S11321A08330B1F00895611102C01ABA08958FEF17
S11321B08ABB0895611102C017BA08958FEF87BBD7
S11321C00895611102C014BA08958FEF84BB089575
S11321D0611102C011BA08958FEF81BB0895813057
S11321E041F028F0823031F0833031F008956BBB38
S11321F0089568BB65BB089562BB0895FC0191B165
S11322008181892B81B9808180B98281880F82B9CB
S1132210089594EA96BF06B607FEFDCF91B1987F64
S1132220983071F4880F83B984E886BF06B607FE38
S1132230FDCF81B1887F883129F0803229F008955B
S113224080E0089588E1089580E2089594EA96BFB5
S113225006B607FEFDCF91B1987F903179F4880FCF
S1132260816083B984E886BF06B607FEFDCF81B1DD
S1132270887F803429F0883429F0089580E0089517
S113228080E4089588E40895FC01808183B984E89A
S113229086BF06B607FEFDCF81B1887F883219F06C
S11322A0803319F0089588E2089580E3089524E8BE
S11322B026BF06B607FEFDCF23B1FC01208381B102
S11322C0887F883501F0089584E986BF06B604FC4A
S11322D0FDCF0895909386078093850708958130F4
S11322E069F028F08230C1F0833079F0089585B721
S11322F08E7F85BF85B78D7F85BF089585B7816043
S113230085BF85B78D7F85BF089585B78E7F85BFCF
S113231085B7826085BF089585B7816085BF85B71D
S1132320826085BF08958FB780688FBF8BB7806444
S11323308BBF08958AB780648ABF8BB78F7B8BBFAE
S113234008951F920F920FB60F9211242F933F936B
S11323504F935F936F937F938F939F93AF93BF93A9
S1132360EF93FF93E0918507F09186070995FF911C
S1132370EF91BF91AF919F918F917F916F915F91F9
S11323804F913F912F910F900FBE0F901F90189572
S11323906E9A6C9A8DB18C7F8DB98DB183608DB935
S11323A07098BC9AC49ABD9ABE98BF9A08956F98C3
S11323B00895C4982FEF2FB9779BFECF2FB1FC015E
S11323C0208308951F920F920FB60F9211242F931A
S11323D03F934F935F936F937F938F939F93AF93A9
S11323E0BF93EF93FF930E94D711E0912A08F091D5
S11323F02B080995FF91EF91BF91AF919F918F9118
S11324007F916F915F914F913F912F910F900FBEEC
S11324100F901F90189580917400811107C012BE0F
S113242082B78F7B82BF82B7877F82BF809177001C
S1132430811107C012BE82B78F7B82BF82B7877FAC
S113244082BF0895CF92DF92EF92FF920F931F9372
S1132450CF93DF93C52ED62EE72EFF244F3F510591
S11324606105710509F018F4C12CD12C76018FEFA8
S1132470C81AD80AE80AF80AE4E7F0E0CAE7D0E0A4
S1132480942F9195DF018081811123C04F3F510525
S11324906105710509F010F492BF01C092BF83B7C2
S11324A0887F83BF23B712968C91822B83BF00E071
S11324B010E0980108B600FEFDCF88B7816088BFA0
S11324C00F5F1F4F2F4F3F4FC016D106E206F30692
S11324D088F73396EC17FD07A9F6DF91CF911F918A
S11324E00F91FF90EF90DF90CF9008951F920F927D
S11324F00FB60F9211242F933F934F935F936F93D3
S11325007F938F939F93AF93BF93EF93FF938091A8
S1132510870790918807A0918907B0918A0701974E
S1132520A109B1098093870790938807A09389072D
S1132530B0938A078091870790918807A0918907B3
S1132540B0918A07892B8A2B8B2B41F489B78E7F14
S113255089BFE0918B07F0918C070995FF91EF916A
S1132560BF91AF919F918F917F916F915F914F91A7
S11325703F912F910F900FBE0F901F90189559986F
S11325808CE089B910BC80B5866880BD80B5806850
S113259080BD80B5806880BD80B5806880BD80E0E6
S11325A00895539A5D9BFECF8CB980E008950097FF
S11325B079F0549AFC01118210825F9BFECF5A99E4
S11325C009C02CB130E0FC013183208380E0089500
S11325D082E0089583E00895579A80E00895549A1C
S11325E090932E0880932D0870938E0760938D0727
S11325F08FB780688FBF0E94EC1280E008955798CF
S113260080E00895559880E008951F920F920FB6C8
S11326100F9211242F933F934F935F936F937F9364
S11326208F939F93AF93BF93EF93FF9380912C0865
S11326308CB90E940213E0918F07F09190070995DD
S1132640FF91EF91BF91AF919F918F917F916F9186
S11326505F914F913F912F910F900FBE0F901F905C
S113266018951F920F920FB60F9211242F933F9338
S11326704F935F936F937F938F939F93AF93BF9386
S1132680EF93FF93E0912D08F0912E088CB1808395
S1132690E0918D07F0918E070995FF91EF91BF911D
S11326A0AF919F918F917F916F915F914F913F91E6
S11326B02F910F900FBE0F901F9018955058BB2765
S11326C0AA270E9476130C94F0140E94E21438F0A6
S11326D00E94E91420F039F49F3F19F426F40C9475
S11326E0DF140EF4E095E7FB0C94D914E92F0E9453
S11326F0011558F3BA17620773078407950720F08A
S113270079F4A6F50C9423150EF4E0950B2EBA2F4C
S1132710A02D0B01B90190010C01CA01A0011124E3
S1132720FF27591B99F0593F50F4503E68F11A168F
S1132730F040A22F232F342F4427585FF3CF469520
S113274037952795A795F0405395C9F77EF41F1642
S1132750BA0B620B730B840BBAF09150A1F0FF0F0C
S1132760BB1F661F771F881FC2F70EC0BA0F621FF8
S1132770731F841F48F4879577956795B795F795E8
S11327809E3F08F0B0CF9395880F08F09927EE0F7D
S11327909795879508950E94B51408F481E00895EB
S11327A00E94E4130C94F0140E94E91458F00E945F
S11327B0E21440F029F45F3F29F00C94D91451112C
S11327C00C9424150C94DF140E94011568F39923CA
S11327D0B1F3552391F3951B550BBB27AA27621719
S11327E07307840738F09F5F5F4F220F331F441F26
S11327F0AA1FA9F335D00E2E3AF0E0E832D091505A
S11328005040E695001CCAF72BD0FE2F29D0660F46
S1132810771F881FBB1F261737074807AB07B0E889
S113282009F0BB0B802DBF01FF2793585F4F3AF08F
S11328309E3F510578F00C94D9140C9424155F3FF5
S1132840E4F3983ED4F3869577956795B795F79515
S11328509F5FC9F7880F911D9695879597F90895FD
S1132860E1E0660F771F881FBB1F62177307840799
S1132870BA0720F0621B730B840BBA0BEE1F88F7A8
S1132880E09508950E9449146894B1110C9424159C
S113289008950E94091588F09F5798F0B92F992739
S11328A0B751B0F0E1F0660F771F881F991F1AF037
S11328B0BA95C9F714C0B13091F00E942315B1E064
S11328C008950C942315672F782F8827B85F39F063
S11328D0B93FCCF3869577956795B395D9F73EF4D0
S11328E090958095709561957F4F8F4F9F4F089578
S11328F0E89409C097FB3EF4909580957095619596
S11329007F4F8F4F9F4F9923A9F0F92F96E9BB274B
S11329109395F695879577956795B795F111F8CFC7
S1132920FAF4BB0F11F460FF1BC06F5F7F4F8F4F32
S11329309F4F16C0882311F096E911C0772321F028
S11329409EE8872F762F05C0662371F096E8862FC0
S113295070E060E02AF09A95660F771F881FDAF717
S1132960880F9695879597F90895990F0008550F44
S1132970AA0BE0E8FEEF16161706E807F907C0F001
S113298012161306E407F50798F0621B730B840B09
S1132990950B39F40A2661F0232B242B252B21F4E3
S11329A008950A2609F4A140A6958FEF811D811D83
S11329B0089597F99F6780E870E060E008959FEFBD
S11329C080EC089500240A941616170618060906C2
S11329D0089500240A941216130614060506089591
S11329E0092E0394000C11F4882352F0BB0F40F419
S11329F0BF2B11F460FF04C06F5F7F4F8F4F9F4F59
S1132A00089557FD9058440F551F59F05F3F71F0DA
S1132A104795880F97FB991F61F09F3F79F0879541
S1132A200895121613061406551FF2CF4695F1DFCA
S1132A3008C0161617061806991FF1CF869571055A
S1132A40610508940895E894BB2766277727CB018E
S1132A5097F908950E94B51408F48FEF08950E9421
S1132A6042150C94F0140E94E21438F00E94E91408
S1132A7020F0952311F00C94D9140C94DF14112434
S1132A800C9424150E94011570F3959FC1F3950FC2
S1132A9050E0551F629FF001729FBB27F00DB11DDE
S1132AA0639FAA27F00DB11DAA1F649F6627B00D6E
S1132AB0A11D661F829F2227B00DA11D621F739F57
S1132AC0B00DA11D621F839FA00D611D221F749F65
S1132AD03327A00D611D231F849F600D211D822FAC
S1132AE0762F6A2F11249F5750409AF0F1F08823D3
S1132AF04AF0EE0FFF1FBB1F661F771F881F915000
S1132B005040A9F79E3F510580F00C94D9140C94C1
S1132B1024155F3FE4F3983ED4F386957795679543
S1132B20B795F795E7959F5FC1F7FE2B880F911D29
S1132B309695879597F90895DB018F939F930E944B
S1132B40F115BF91AF91A29F800D911DA39F900D90
S1132B50B29F900D1124089597FB072E16F400944C
S1132B6007D077FD09D00E94041607FC05D03EF477
S1132B70909581959F4F0895709561957F4F089525
S1132B80A1E21A2EAA1BBB1BFD010DC0AA1FBB1F6D
S1132B90EE1FFF1FA217B307E407F50720F0A21BDF
S1132BA0B30BE40BF50B661F771F881F991F1A944C
S1132BB069F760957095809590959B01AC01BD0176
S1132BC0CF010895A29FB001B39FC001A39F700DD0
S1132BD0811D1124911DB29F700D811D1124911D21
S1132BE008950E94E215A59F900DB49F900DA49F97
S1132BF0800D911D11240895B7FF0C94F1150E94C6
S1132C00F115821B930B0895AA1BBB1B51E107C04E
S1132C10AA1FBB1FA617B70710F0A61BB70B881F68
S1132C20991F5A95A9F780959095BC01CD010895F7
S1072C30F894FFCF42
S1132C3401323330370041444D494E000405060740
S1132C4400010203000001010001456E7465722055
S1132C54616D6F756E74203A00456E746572205010
S1132C64617373776F7264203A0057726F6E6720D2
S1132C7470617373776F72640072656D61696E69F4
S1132C846E67207472793A00436F727265637420BC
S1132C9470617373776F726400546865204E65774E
S1132CA42042616C616E63652069733A00706C65DF
S1132CB461736520456E74657220437573746F6D1A
S1132CC465722042616C616E636520696E20666F73
S1132CD4726D61742078787878782E78780D00494C
S1132CE46E76616C69642042616C616E6365204632
S1132CF46F726D617465202C42616C616E63652032
S1132D046D75737420626520696E20666F726D61DF
S1132D14742078787878782E78780D00496E766106
S1132D246C69642042616C616E636520466F726DE8
S1132D34617465202C2042616C616E6365206D753D
S1132D447374206E6F7420636F6E7461696E206196
S1132D546E7920636861726163746572730D0070C7
S1132D646C6561736520456E746572204D617820CD
S1132D74616D6F756E7420696E20666F726D617417
S1132D842078787878782E78780D00496E76616C9E
S1132D94696420616D6F756E7420466F726D617421
S1132DA465202C616D6F756E74206D75737420626B
S1132DB46520696E20666F726D6174207878787806
S1132DC4782E78780D00496E76616C696420616DA3
S1132DD46F756E7420466F726D617465202C20616A
S1132DE46D6F756E74206D757374206E6F742063CB
S1132DF46F6E7461696E20616E79206368617261BB
S1132E0463746572730D00706C6561736520456E3F
S1132E1474657220437573746F6D65722050414EEE
S1132E24204E756D6265720D00496E76616C69643D
S1132E342050414E20466F726D617465202C2050E1
S1132E44414E206D7573742062652039206E756D52
S1132E54626572730D00496E76616C696420504139
S1132E644E20466F726D617465202C2050414E20B3
S1132E746D757374206E6F7420636F6E7461696E04
S1132E8420616E7920636861726163746572730D85
S1132E94004D656D6F72792069732046756C6C0DF5
S1132EA40020202077616974696E672E2E2E2E20EF
S1132EB42020200020202020202048656C6C6F20D6
S1132EC42020200077726F6E6720666F726D6174C4
S1132ED40077616974696E6700312D436F6E6669AA
S1132EE4726D00322D43616E63656C0074686520F5
S1132EF47472616E73616374696F6E2020697320E8
S1132F04617070726F7665640054616B6520796FCB
S1132F147572206D6F6E65790054616B6520796FED
S1132F2475722043617264005468616E6B20796F1A
S1132F34750043616E63656C656400696E737566E0
S1132F4466696369656E74202066756E64006578CD
S1132F546365656473206D6178696D756D20616D59
S1132F646F756E740050414E206E756D62657220EB
S1132F746973202020666F756E64656420696E2011
S1132F844442005468652043617264202020202058
S1132F94202020697320626C6F636B656420007069
S1132FA46C6561736520636F6E746163742073650B
S1132FB472766963652070726F76696465720079EC
S1132FC46F7520656E7465726564203320202077E4
S1132FD4726F6E672070617373776F7264730054D9
S1132FE46865206361726420202020202020204909
S1132FF47320626C6F636B6564005468652043617D
S11330047264206973206E6F7420696E69746961D7
S11330146C697A656400546865204361726420684D
S1133024617320202020206265656E20626C6F63CA
S11330346B65642000506C6561736520636F6E7406
S11330446163742020736572766963652070726F9E
S11330547669646572002A2A2A2A2A2A2A2A2A2AAA
S11330642A2A2A2A2A2A2A2A2A2A2A2A2A2A2A2AB8
S11330742A2A2A2A2A2A2A2A2A2A2A2A2A2A2A2AA8
S11330842A2A2A2A2A2A2A2A2A2A2A2A2A2A2A2A98
S11330942A2A2A0D004944203A200050414E204E49
S11330A4756D626572203A0042616C616E636520DD
S11330B43A00446174612062617365206973206518
S11330C46D707479202121200D00546F74616C207B
S11330D46E756D626572206F6620637573746F6DAF
S11330E4657273206973203A2000506C65617365BE
S11330F420456E7465722050617373776F72640D2A
S113310400796F7520656E74657265642033207769
S1133114726F6E672070617373776F7264730D00DE
S11331246261636B20746F206F7065726174696F80
S11331346E204D6F646520696620796F7520776110
S11331446E742041444D494E206D6F64652057725E
S11331546974652041444D494E20436F6D6D616E21
S1133164640D00312D496E73657274204361726479
S113317400322D54656D70657261747572650077E3
S1133184726F6E672070617373776F72640D00548D
S113319468652041544D2069732020202020206F2D
S11331A47574206F66207365727669636500506C6C
S11331B4656173652073656C656374206F707469ED
S11331C46F6E203A0D00312D2041646420437573E1
S11331D4746F6D657220446174610D00322D205347
S11331E4657474696E67204D617820616D6F756EC6
S11331F4740D00332D20446973706C617920616C03
S11332046C20637573746F6D6572732044617461AB
S11332140D00342D5B4265206361726566756C5DD7
S113322420436C65617220616C6C20637573746FE8
S11332346D65727320446174610D00352D204578E9
S113324469740D00496E76616C6964206F707469E9
S11332546F6E0D0074686520437573746F6D6572C9
S1133264204461746120686173206265656E206125
S113327464646564207375636365737366756C6CE9
S1133284790D00746865204E657720746F74616CE1
S1133294206E756D626572206F6620637573746F3A
S11332A46D657220696E2044617461206261736586
S11332B4203A0D00546865206D617820616D6F7546
S11332C46E7420686173206265656E20696E69742A
S11332D469616C697A656420737563636573736685
S11332E4756C6C790D0020202020202044617461C9
S11332F42068617665206265656E2064656C65741A
S11333046564207375636365737366756C6C790D9A
S1133314004D415820416D6F756E74206973206EA1
S11333246F7420696E697469616C697A6564200DCF
S113333400496E7365727420546865204361726435
S11333440054656D706572617475726520697320CB
S10533543A0039
S9030000FC
